:020000040000FA
:020000000E28C8
:10000800FE00030E83120313A1000408A2000A08CD
:10001800A300782C0F281E27B9001F27BA00202715
:10002800BB002127BC002227BD002327BE002427B0
:10003800BF002527C0002627C1002727C200282780
:10004800C3002927C4002A27C5002B27C6002C2750
:10005800C7002D27C8002E27C9002F27CA008301F3
:10006800932E8B13A723382883120313061C3D28CD
:100078003E283828861C4128422838284328B801B9
:1000880006303802031C49284A284C280529052926
:10009800DC264E28013083120313B2003803FF3ADE
:1000A800053E013E59280310B20DFF3E031D572897
:1000B8003208B30033088506DE3083120313B2001A
:1000C80065286628B20B642869286A286B280B1CE7
:1000D8006E286F284E28333083120313B200B20BF8
:1000E800732800008312031306187B287C28D12864
:1000F800861C7F288028D1280130B200380A86283B
:100108000310B20DFF3E031D842832084605031D67
:100118008E289028013091280030B3003308B400AD
:100128000130B2003208B4060130B2003803FF3A99
:10013800053E013EA1280310B20DFF3E031D9F2876
:100148003208FF3AB300330885053408B200380393
:10015800FF3A053E013EB2280310B20DFF3E031DD3
:10016800B0283208B3003308850405083F390E2546
:1001780083120313B2003208C6003330831203130C
:10018800B200B20BC5280000C92883120313061C4D
:10019800CE28CF28C9284E284E28061CD428D52872
:1001A8004E288618D828D9284E28DC26EE28333041
:1001B80083120313B200B20BDF280000831203136B
:1001C8000618E728E828EE288618EB28EC28EE28F9
:1001D800682B682B83120313861CF328F428DB286A
:1001E800FA28FA284E284E284E284E280130B20008
:1001F8003208B80706303802031C032904294C28A2
:100208000529B80105303802031C0B290C290E29D1
:10021800CE29CE29DC261029013083120313B2001F
:100228003803FF3A073E013E1B290310B20DFF3E7B
:10023800031D19293208B30033088706DE308312FC
:100248000313B20027292829B20B26292B292C2988
:100258002D290B1C3029312910293330831203131F
:10026800B200B20B352900008312031306183D298A
:100278003E299A29861C412942299A290130B2002F
:10028800380A48290310B20DFF3E031D46293208DB
:100298004705031D50295229013053290030B30066
:1002A8003308B5000130B2003208B5060130B2009B
:1002B8003803FF3A073E013E63290310B20DFF3EA3
:1002C800031D61293208FF3AB30033088705350852
:1002D800B2003803FF3A073E013E74290310B20DFD
:1002E800FF3E031D72293208B3003308870407084C
:1002F800B20003300310B20CFF3E031D7E29320802
:10030800CC2583120313B3003308C700333083129C
:100318000313B200B20B8E29000092298312031333
:10032800061C97299829922910291029061C9D290D
:100338009E2910298618A129A2291029DC26B72967
:10034800333083120313B200B20BA82900008312C2
:1003580003130618B029B129B7298618B429B52975
:10036800B729682B682B83120313861CBC29BD2967
:10037800A429C329C32910291029102910290130BB
:10038800B2003208B80705303802031CCC29CD2941
:100398000E29CE29A723DE3083120313B200D429F5
:1003A800D529B20BD329D829D929DA2983120313DD
:1003B800B80104303802031CE229E329E529A52AFB
:1003C800A52AC626E729013083120313B200380391
:1003D800FF3A073E013EF2290310B20DFF3E031D0E
:1003E800F0293208B30033088706DE30831203137E
:1003F800B200FE29FF29B20BFD29022A032A042A8A
:100408000B1C072A082AE729333083120313B2008A
:10041800B20B0C2A0000831203130618142A152A9B
:10042800712A861C182A192A712A0130B200380A42
:100438001F2A0310B20DFF3E031D1D2A320849056D
:10044800031D272A292A01302A2A0030B30033083D
:10045800B6000130B2003208B6060130B2003803E7
:10046800FF3A073E013E3A2A0310B20DFF3E031D34
:10047800382A3208FF3AB300330887053608B20035
:100488003803FF3A073E013E4B2A0310B20DFF3EE8
:10049800031D492A3208B300330887040708B2004D
:1004A80003300310B20CFF3E031D552A3208CC2539
:1004B80083120313B3003308C900333083120313C4
:1004C800B200B20B652A0000692A83120313061CC6
:1004D8006E2A6F2A692AE729E729061C742A752AD1
:1004E800E7298618782A792AE729C6268E2A3330FA
:1004F80083120313B200B20B7F2A00008312031386
:100508000618872A882A8E2A86188B2A8C2A8E2AE9
:10051800682B682B83120313861C932A942A7B2A40
:100528009A2A9A2AE729E729E729E7290130B20018
:100538003208B80704303802031CA32AA42AE52984
:10054800A52AB80105303802031CAB2AAC2AAE2A0A
:10055800682B682BC626B02A013083120313B20019
:100568003803FF3A053E013EBB2A0310B20DFF3E99
:10057800031DB92A3208B30033088506DE3083121A
:100588000313B200C72AC82AB20BC62ACB2ACC2A20
:10059800CD2A0B1CD02AD12AB02A33308312031358
:1005A800B200B20BD52A0000831203130618DD2A05
:1005B800DE2A332B861CE12AE22A332B0130B200D3
:1005C800380AE82A0310B20DFF3E031DE62A320856
:1005D8004805031DF02AF22A0130F32A0030B3003F
:1005E8003308B7000130B2003208B7060130B20054
:1005F8003803FF3A053E013E032B0310B20DFF3EC0
:10060800031D012B3208FF3AB3003308850537086C
:10061800B2003803FF3A053E013E142B0310B20D19
:10062800FF3E031D122B3208B3003308850405086A
:100638003F390E2583120313B2003208C800333045
:1006480083120313B200B20B272B00002B2B83124B
:100658000313061C302B312B2B2BB02AB02A061C77
:10066800362B372BB02A86183A2B3B2BB02AC626B6
:10067800502B333083120313B200B20B412B00000E
:10068800831203130618492B4A2B502B86184D2B1F
:100698004E2B502B682B682B83120313861C552B6B
:1006A800562B3D2B5C2B5C2BB02AB02AB02AB02AE3
:1006B8000130B2003208B80705303802031C652B38
:1006C800662BAE2A682B682B3C304602031C6D2B28
:1006D8006E2B702BC601702B18304702031C752B2C
:1006E800762B772BC701C50110140D30490203186A
:1006F8007E2B7F2B842B4908031D832B842B872B70
:10070800C901C90A872B4908FF3E393E84004808B9
:1007180083130002031C912B922B972B4808031D6F
:10072800962B972B9A2BC801C80A9A2BA72305301A
:1007380083120313B3000D30B200B20BA12BB30B1D
:10074800A12B8B17080030279B3083120313A500B9
:10075800AD2BA50BAC2BB02BB12B83120313A70128
:1007680006302702031CB92BBA2BBC2BE22BE22B39
:100778000130A5002703FF3A053E013EC52B0310B3
:10078800A50DFF3E031DC32B2508A60026088504DA
:100798009B3083120313A500D12BA50BD02BD42B90
:1007A800D52B013083120313A5002508A7070630AF
:1007B8002702031CE02BE12BBC2BE22BA701063000
:1007C8002702031CE82BE92BEB2B122C122C0130EF
:1007D800A5002703FF3A053E013EF42B0310A50DA3
:1007E800FF3E031DF22B2508FF3AA60026088505C3
:1007F8009B3083120313A500012CA50B002C042C9D
:10080800052C013083120313A5002508A70706301D
:100818002702031C102C112CEB2B122C0330A500E3
:100828002508A70009302702031C1B2C1C2C1E2C92
:10083800442C442C0130A5002703FF3A0B3E013E0F
:10084800272C0310A50DFF3E031D252C2508A60007
:10085800260887049B3083120313A500332CA50BAD
:10086800322C362C372C013083120313A5002508AF
:10087800A70709302702031C422C432C1E2C442CAA
:100888000330A5002508A70009302702031C4D2CBA
:100898004E2C502C772C772C0130A5002703FF3ADB
:1008A8000B3E013E592C0310A50DFF3E031D572C8E
:1008B8002508FF3AA600260887059B3083120313F4
:1008C800A500662CA50B652C692C6A2C01308312B7
:1008D8000313A5002508A70709302702031C752C58
:1008E800762C502C772C08000C1C7B2C7C2CD82CBC
:1008F8000130A0002008C5073C304502031C852CA8
:10090800862CBE2CC5010130A0002008C6073C304B
:100918004602031C902C912CBE2CC6010130A0006D
:100928002008C70718304702031C9B2C9C2CBE2CA0
:10093800C7014908FF3E393E84000130A000200865
:10094800C8074808831300020318AB2CAC2CBE2C34
:10095800C801C80A0130A0002008C9070D304902A3
:10096800031CB72CB82CBE2CC901C90ABE2CBE2C3E
:10097800BE2CBE2C8F170618C22CC32CC92C861C63
:10098800C62CC72CC92C0827D42C8618CC2CCD2CC7
:10099800D42C061CD02CD12CD42CF226D42CD42C1C
:1009A800831203130C10032D0B1CDB2CDC2C032DE2
:1009B8000618DF2CE02CE62C861CE32CE42CE62C15
:1009C8000827002D061CE92CEA2CF02C8618ED2CA3
:1009D800EE2CF02CF226002D0618F32CF42CFB2C10
:1009E8008618F72CF82CFB2CCA01CA0A002D4627BA
:1009F8005127002D002D002D0B10032D032D8312E0
:100A0800031323088A0022088400210E8300FE0EA7
:100A18007E0E090083120313B000AF01B01A152D22
:100A2800172D0130182D0030A4002408AF04301A07
:100A38001E2D1F2D222DA501A601272D0230A50050
:100A48000030A600272D2508A4002408AF04B019FB
:100A58002E2D2F2D322DA701A801372D0430A700E8
:100A68000030A800372D2708A4002408AF04301947
:100A78003E2D3F2D422DA901AA01472D0830A9007E
:100A88000030AA00472D2908A4002408AF04B01894
:100A98004E2D4F2D522DAB01AC01572D1030AB0010
:100AA8000030AC00572D2B08A4002408AF043018E0
:100AB8005E2D5F2D622DAD01AE01672D2030AD009A
:100AC8000030AE00672D2D08A4002408AF042F08BD
:100AD8006D2D0800FC00FB01FC1A732D752D0130EB
:100AE800762D0030F0007008FB047C1A7C2D7D2DDB
:100AF800802DF101F201852D0230F1000030F20065
:100B0800852D7108F0007008FB04FC198C2D8D2DC3
:100B1800902DF301F401952D0430F3000030F4001A
:100B2800952D7308F0007008FB047C199C2D9D2DF1
:100B3800A02DF501F601A52D0830F5000030F600CE
:100B4800A52D7508F0007008FB04FC18AC2DAD2D20
:100B5800B02DF701F801B52D1030F7000030F8007E
:100B6800B52D7708F0007008FB047C18BC2DBD2D4E
:100B7800C02DF901FA01C52D2030F9000030FA0026
:100B8800C52D7908F0007008FB047B08CB2D080000
:100B980083120313AE00AD012E1AD32DD52D0130CB
:100BA800D62D0030A4002408AD04AE19DC2DDD2DAF
:100BB800E02DA501A601E52D0230A5000030A60014
:100BC800E52D2508A4002408AD042E19EC2DED2DE3
:100BD800F02DA701A801F52D0430A7000030A800CA
:100BE800F52D2708A4002408AD04AE18FC2DFD2D12
:100BF800002EA901AA01052E0830A9000030AA007C
:100C0800052E2908A4002408AD042E180C2E0D2E3C
:100C1800102EAB01AC01152E1030AB000030AC002B
:100C2800152E2B08A4002408AD042D081B2E08003F
:100C3800FA00F9017A1A212E232E0130242E0030D1
:100C4800F0007008F904FA192A2E2B2E2E2EF10125
:100C5800F201332E0230F1000030F200332E710819
:100C6800F0007008F9047A193A2E3B2E3E2EF30153
:100C7800F401432E0430F3000030F400432E7308CF
:100C8800F0007008F904FA184A2E4B2E4E2EF50182
:100C9800F601532E0830F5000030F600532E750883
:100CA800F0007008F9047A185A2E5B2E5E2EF701B0
:100CB800F801632E1030F7000030F800632E770833
:100CC800F0007008F9047908692E080083160317E4
:100CD8008501860183160313850183120313850199
:100CE80083160313860183120313860183160313E5
:100CF8000614861481131514951416149614870176
:100D0800831203138701AD260B108B15831203136F
:100D18000C10831603130C140B178B1708003B27B2
:100D28006A26A02EA02E6300A02E3520831203135E
:100D3800CA01A02EA02EA02E831203134A08003A3F
:100D48000319972E013A0319992EA02EA02EA02E32
:100D58000E28831203139015101510083F39803898
:100D68009000831603138F138030831203138F00B0
:100D78008E0110140C10C02E0C1CC32EC42EC02EB5
:100D88000B1108008312031348080E25831203135E
:100D980085004908CC2583120313B10002300310E3
:100DA800B10DFF3E031DD32E0310310D870008003F
:100DB8008312031346080E25831203138500470880
:100DC800CC2583120313B10002300310B10DFF3E8E
:100DD800031DE92E0310310D870008008312031349
:100DE80048086E2583120313850049081C26FD0058
:100DF80002300310FD0DFF3E031DFD2E03107D0D77
:100E080083120313870008008312031346086E2514
:100E180083120313850047081C26FD0002300310C7
:100E2800FD0DFF3E031D132F03107D0D83120313C9
:100E3800870008001F341C341F341E341F341E342E
:100E48001F341F341E341F341E341F340034003442
:100E58000034013401340134C03083120313A40078
:100E6800240885050730A400240887050800CF302A
:100E7800831603139005402F101D432F442F402F36
:100E8800452F0800C030F000700883120313850551
:100E98000730F000700887050800C030F0007008BF
:100EA8008312031385050730F000700887050800D2
:04400E00E4ECFFFFE0
:00000001FF
